{
  "_format": "hh-sol-artifact-1",
  "contractName": "Raffle",
  "sourceName": "contracts/Raffles.sol",
  "abi": [
    {
      "inputs": [
        {
          "internalType": "address",
          "name": "vrfCoordinatorV2",
          "type": "address"
        },
        {
          "internalType": "uint256",
          "name": "entranceFee",
          "type": "uint256"
        },
        {
          "internalType": "bytes32",
          "name": "keyHash",
          "type": "bytes32"
        },
        {
          "internalType": "uint64",
          "name": "subscriptionId",
          "type": "uint64"
        },
        {
          "internalType": "uint32",
          "name": "callbackGasLimit",
          "type": "uint32"
        },
        {
          "internalType": "uint256",
          "name": "interval",
          "type": "uint256"
        }
      ],
      "stateMutability": "nonpayable",
      "type": "constructor"
    },
    {
      "inputs": [
        {
          "internalType": "address",
          "name": "have",
          "type": "address"
        },
        {
          "internalType": "address",
          "name": "want",
          "type": "address"
        }
      ],
      "name": "OnlyCoordinatorCanFulfill",
      "type": "error"
    },
    {
      "inputs": [],
      "name": "Raffle__NotEnoughETH",
      "type": "error"
    },
    {
      "inputs": [],
      "name": "Raffle__NotOpen",
      "type": "error"
    },
    {
      "inputs": [],
      "name": "Raffle__TransferFail",
      "type": "error"
    },
    {
      "inputs": [
        {
          "internalType": "uint256",
          "name": "currentBalance",
          "type": "uint256"
        },
        {
          "internalType": "uint256",
          "name": "numPlayers",
          "type": "uint256"
        },
        {
          "internalType": "uint256",
          "name": "raffleState",
          "type": "uint256"
        }
      ],
      "name": "Raffle__UpkeepNotNeeded",
      "type": "error"
    },
    {
      "anonymous": false,
      "inputs": [
        {
          "indexed": true,
          "internalType": "address",
          "name": "player",
          "type": "address"
        }
      ],
      "name": "RaffleEnter",
      "type": "event"
    },
    {
      "anonymous": false,
      "inputs": [
        {
          "indexed": true,
          "internalType": "uint256",
          "name": "requestId",
          "type": "uint256"
        }
      ],
      "name": "RequestedRaffleWinner",
      "type": "event"
    },
    {
      "anonymous": false,
      "inputs": [
        {
          "indexed": true,
          "internalType": "address",
          "name": "winner",
          "type": "address"
        }
      ],
      "name": "WinnerPicked",
      "type": "event"
    },
    {
      "inputs": [
        {
          "internalType": "bytes",
          "name": "",
          "type": "bytes"
        }
      ],
      "name": "checkUpkeep",
      "outputs": [
        {
          "internalType": "bool",
          "name": "upkeepNeeded",
          "type": "bool"
        },
        {
          "internalType": "bytes",
          "name": "",
          "type": "bytes"
        }
      ],
      "stateMutability": "view",
      "type": "function"
    },
    {
      "inputs": [],
      "name": "enterRaffle",
      "outputs": [],
      "stateMutability": "payable",
      "type": "function"
    },
    {
      "inputs": [],
      "name": "getEntranceFee",
      "outputs": [
        {
          "internalType": "uint256",
          "name": "",
          "type": "uint256"
        }
      ],
      "stateMutability": "view",
      "type": "function"
    },
    {
      "inputs": [
        {
          "internalType": "uint256",
          "name": "index",
          "type": "uint256"
        }
      ],
      "name": "getPlayer",
      "outputs": [
        {
          "internalType": "address",
          "name": "",
          "type": "address"
        }
      ],
      "stateMutability": "view",
      "type": "function"
    },
    {
      "inputs": [],
      "name": "getWinner",
      "outputs": [
        {
          "internalType": "address",
          "name": "",
          "type": "address"
        }
      ],
      "stateMutability": "view",
      "type": "function"
    },
    {
      "inputs": [
        {
          "internalType": "bytes",
          "name": "",
          "type": "bytes"
        }
      ],
      "name": "performUpkeep",
      "outputs": [],
      "stateMutability": "nonpayable",
      "type": "function"
    },
    {
      "inputs": [
        {
          "internalType": "uint256",
          "name": "requestId",
          "type": "uint256"
        },
        {
          "internalType": "uint256[]",
          "name": "randomWords",
          "type": "uint256[]"
        }
      ],
      "name": "rawFulfillRandomWords",
      "outputs": [],
      "stateMutability": "nonpayable",
      "type": "function"
    }
  ],
  "bytecode": "0x6101606040523480156200001257600080fd5b50604051620015e7380380620015e7833981810160405281019062000038919062000294565b858073ffffffffffffffffffffffffffffffffffffffff1660808173ffffffffffffffffffffffffffffffffffffffff1681525050508460a081815250508573ffffffffffffffffffffffffffffffffffffffff1660c08173ffffffffffffffffffffffffffffffffffffffff16815250508360e081815250508267ffffffffffffffff166101008167ffffffffffffffff16815250508163ffffffff166101208163ffffffff16815250506000600160146101000a81548160ff021916908360018111156200010d576200010c62000330565b5b0217905550426002819055508061014081815250505050505050506200035f565b600080fd5b600073ffffffffffffffffffffffffffffffffffffffff82169050919050565b6000620001608262000133565b9050919050565b620001728162000153565b81146200017e57600080fd5b50565b600081519050620001928162000167565b92915050565b6000819050919050565b620001ad8162000198565b8114620001b957600080fd5b50565b600081519050620001cd81620001a2565b92915050565b6000819050919050565b620001e881620001d3565b8114620001f457600080fd5b50565b6000815190506200020881620001dd565b92915050565b600067ffffffffffffffff82169050919050565b6200022d816200020e565b81146200023957600080fd5b50565b6000815190506200024d8162000222565b92915050565b600063ffffffff82169050919050565b6200026e8162000253565b81146200027a57600080fd5b50565b6000815190506200028e8162000263565b92915050565b60008060008060008060c08789031215620002b457620002b36200012e565b5b6000620002c489828a0162000181565b9650506020620002d789828a01620001bc565b9550506040620002ea89828a01620001f7565b9450506060620002fd89828a016200023c565b93505060806200031089828a016200027d565b92505060a06200032389828a01620001bc565b9150509295509295509295565b7f4e487b7100000000000000000000000000000000000000000000000000000000600052602160045260246000fd5b60805160a05160c05160e05161010051610120516101405161121f620003c8600039600061062b015260006105300152600061050d015260006104ec015260006104b00152600081816101a6015261028c0152600081816101cc0152610220015261121f6000f3fe6080604052600436106100705760003560e01c80634585e33b1161004e5780634585e33b146100d35780636e04ff0d146100fc5780638e7ea5b21461013a578063e55ae4e81461016557610070565b806309bc33a7146100755780631fe543e3146100a05780632cfcc539146100c9575b600080fd5b34801561008157600080fd5b5061008a6101a2565b6040516100979190610a0c565b60405180910390f35b3480156100ac57600080fd5b506100c760048036038101906100c29190610bc0565b6101ca565b005b6100d161028a565b005b3480156100df57600080fd5b506100fa60048036038101906100f59190610c77565b6103f9565b005b34801561010857600080fd5b50610123600480360381019061011e9190610d79565b6105e9565b604051610131929190610e5c565b60405180910390f35b34801561014657600080fd5b5061014f6106aa565b60405161015c9190610ecd565b60405180910390f35b34801561017157600080fd5b5061018c60048036038101906101879190610ee8565b6106d4565b6040516101999190610ecd565b60405180910390f35b60007f0000000000000000000000000000000000000000000000000000000000000000905090565b7f000000000000000000000000000000000000000000000000000000000000000073ffffffffffffffffffffffffffffffffffffffff163373ffffffffffffffffffffffffffffffffffffffff161461027c57337f00000000000000000000000000000000000000000000000000000000000000006040517f1cf993f4000000000000000000000000000000000000000000000000000000008152600401610273929190610f15565b60405180910390fd5b610286828261071b565b5050565b7f00000000000000000000000000000000000000000000000000000000000000003410156102e4576040517f9894879b00000000000000000000000000000000000000000000000000000000815260040160405180910390fd5b600060018111156102f8576102f7610f3e565b5b600160149054906101000a900460ff16600181111561031a57610319610f3e565b5b14610351576040517f1425571c00000000000000000000000000000000000000000000000000000000815260040160405180910390fd5b6000339080600181540180825580915050600190039060005260206000200160009091909190916101000a81548173ffffffffffffffffffffffffffffffffffffffff021916908373ffffffffffffffffffffffffffffffffffffffff1602179055503373ffffffffffffffffffffffffffffffffffffffff167f0805e1d667bddb8a95f0f09880cf94f403fb596ce79928d9f29b74203ba284d460405160405180910390a2565b6000610413604051806020016040528060008152506105e9565b509050806104825747600080549050600160149054906101000a900460ff16600181111561044457610443610f3e565b5b6040517f584327aa00000000000000000000000000000000000000000000000000000000815260040161047993929190610f6d565b60405180910390fd5b60018060146101000a81548160ff021916908360018111156104a7576104a6610f3e565b5b021790555060007f000000000000000000000000000000000000000000000000000000000000000073ffffffffffffffffffffffffffffffffffffffff16635d3b1d307f00000000000000000000000000000000000000000000000000000000000000007f000000000000000000000000000000000000000000000000000000000000000060037f000000000000000000000000000000000000000000000000000000000000000060016040518663ffffffff1660e01b815260040161057195949392919061101c565b6020604051808303816000875af1158015610590573d6000803e3d6000fd5b505050506040513d601f19601f820116820180604052508101906105b49190611084565b9050807fcd6e45c8998311cab7e9d4385596cac867e20a0587194b954fa3a731c93ce78b60405160405180910390a250505050565b60006060600080600181111561060257610601610f3e565b5b600160149054906101000a900460ff16600181111561062457610623610f3e565b5b14905060007f00000000000000000000000000000000000000000000000000000000000000006002544261065891906110e0565b119050600080600080549050119050600080471190508380156106785750825b80156106815750815b801561068a5750805b955085604051806020016040528060008152509550955050505050915091565b6000600160009054906101000a900473ffffffffffffffffffffffffffffffffffffffff16905090565b60008082815481106106e9576106e8611114565b5b9060005260206000200160009054906101000a900473ffffffffffffffffffffffffffffffffffffffff169050919050565b600080805490508260008151811061073657610735611114565b5b60200260200101516107489190611172565b9050600080828154811061075f5761075e611114565b5b9060005260206000200160009054906101000a900473ffffffffffffffffffffffffffffffffffffffff16905080600160006101000a81548173ffffffffffffffffffffffffffffffffffffffff021916908373ffffffffffffffffffffffffffffffffffffffff1602179055506000600160146101000a81548160ff021916908360018111156107f3576107f2610f3e565b5b0217905550600067ffffffffffffffff81111561081357610812610a7d565b5b6040519080825280602002602001820160405280156108415781602001602082028036833780820191505090505b506000908051906020019061085792919061094c565b504260028190555060008173ffffffffffffffffffffffffffffffffffffffff1647604051610885906111d4565b60006040518083038185875af1925050503d80600081146108c2576040519150601f19603f3d011682016040523d82523d6000602084013e6108c7565b606091505b5050905080610902576040517f47c5e6cd00000000000000000000000000000000000000000000000000000000815260040160405180910390fd5b8173ffffffffffffffffffffffffffffffffffffffff167f5b690ec4a06fe979403046eaeea5b3ce38524683c3001f662c8b5a829632f7df60405160405180910390a25050505050565b8280548282559060005260206000209081019282156109c5579160200282015b828111156109c45782518260006101000a81548173ffffffffffffffffffffffffffffffffffffffff021916908373ffffffffffffffffffffffffffffffffffffffff1602179055509160200191906001019061096c565b5b5090506109d291906109d6565b5090565b5b808211156109ef5760008160009055506001016109d7565b5090565b6000819050919050565b610a06816109f3565b82525050565b6000602082019050610a2160008301846109fd565b92915050565b6000604051905090565b600080fd5b600080fd5b610a44816109f3565b8114610a4f57600080fd5b50565b600081359050610a6181610a3b565b92915050565b600080fd5b6000601f19601f8301169050919050565b7f4e487b7100000000000000000000000000000000000000000000000000000000600052604160045260246000fd5b610ab582610a6c565b810181811067ffffffffffffffff82111715610ad457610ad3610a7d565b5b80604052505050565b6000610ae7610a27565b9050610af38282610aac565b919050565b600067ffffffffffffffff821115610b1357610b12610a7d565b5b602082029050602081019050919050565b600080fd5b6000610b3c610b3784610af8565b610add565b90508083825260208201905060208402830185811115610b5f57610b5e610b24565b5b835b81811015610b885780610b748882610a52565b845260208401935050602081019050610b61565b5050509392505050565b600082601f830112610ba757610ba6610a67565b5b8135610bb7848260208601610b29565b91505092915050565b60008060408385031215610bd757610bd6610a31565b5b6000610be585828601610a52565b925050602083013567ffffffffffffffff811115610c0657610c05610a36565b5b610c1285828601610b92565b9150509250929050565b600080fd5b60008083601f840112610c3757610c36610a67565b5b8235905067ffffffffffffffff811115610c5457610c53610c1c565b5b602083019150836001820283011115610c7057610c6f610b24565b5b9250929050565b60008060208385031215610c8e57610c8d610a31565b5b600083013567ffffffffffffffff811115610cac57610cab610a36565b5b610cb885828601610c21565b92509250509250929050565b600080fd5b600067ffffffffffffffff821115610ce457610ce3610a7d565b5b610ced82610a6c565b9050602081019050919050565b82818337600083830152505050565b6000610d1c610d1784610cc9565b610add565b905082815260208101848484011115610d3857610d37610cc4565b5b610d43848285610cfa565b509392505050565b600082601f830112610d6057610d5f610a67565b5b8135610d70848260208601610d09565b91505092915050565b600060208284031215610d8f57610d8e610a31565b5b600082013567ffffffffffffffff811115610dad57610dac610a36565b5b610db984828501610d4b565b91505092915050565b60008115159050919050565b610dd781610dc2565b82525050565b600081519050919050565b600082825260208201905092915050565b60005b83811015610e17578082015181840152602081019050610dfc565b60008484015250505050565b6000610e2e82610ddd565b610e388185610de8565b9350610e48818560208601610df9565b610e5181610a6c565b840191505092915050565b6000604082019050610e716000830185610dce565b8181036020830152610e838184610e23565b90509392505050565b600073ffffffffffffffffffffffffffffffffffffffff82169050919050565b6000610eb782610e8c565b9050919050565b610ec781610eac565b82525050565b6000602082019050610ee26000830184610ebe565b92915050565b600060208284031215610efe57610efd610a31565b5b6000610f0c84828501610a52565b91505092915050565b6000604082019050610f2a6000830185610ebe565b610f376020830184610ebe565b9392505050565b7f4e487b7100000000000000000000000000000000000000000000000000000000600052602160045260246000fd5b6000606082019050610f8260008301866109fd565b610f8f60208301856109fd565b610f9c60408301846109fd565b949350505050565b6000819050919050565b610fb781610fa4565b82525050565b600067ffffffffffffffff82169050919050565b610fda81610fbd565b82525050565b600061ffff82169050919050565b610ff781610fe0565b82525050565b600063ffffffff82169050919050565b61101681610ffd565b82525050565b600060a0820190506110316000830188610fae565b61103e6020830187610fd1565b61104b6040830186610fee565b611058606083018561100d565b611065608083018461100d565b9695505050505050565b60008151905061107e81610a3b565b92915050565b60006020828403121561109a57611099610a31565b5b60006110a88482850161106f565b91505092915050565b7f4e487b7100000000000000000000000000000000000000000000000000000000600052601160045260246000fd5b60006110eb826109f3565b91506110f6836109f3565b925082820390508181111561110e5761110d6110b1565b5b92915050565b7f4e487b7100000000000000000000000000000000000000000000000000000000600052603260045260246000fd5b7f4e487b7100000000000000000000000000000000000000000000000000000000600052601260045260246000fd5b600061117d826109f3565b9150611188836109f3565b92508261119857611197611143565b5b828206905092915050565b600081905092915050565b50565b60006111be6000836111a3565b91506111c9826111ae565b600082019050919050565b60006111df826111b1565b915081905091905056fea2646970667358221220a531478da1fa3d30deeb516681a355bc522f4c9a1e538ea50b5bf15c77842d3e64736f6c63430008120033",
  "linkReferences": {},
  "deployedLinkReferences": {}
}